{
  "address": "0xa6a4CF68d8ad539b058b1234c70f4b55187D2De6",
  "abi": [
    {
      "anonymous": false,
      "inputs": [
        {
          "indexed": true,
          "internalType": "uint256",
          "name": "pollKey",
          "type": "uint256"
        },
        {
          "indexed": true,
          "internalType": "address",
          "name": "initiator",
          "type": "address"
        },
        {
          "indexed": false,
          "internalType": "uint256",
          "name": "expiresAt",
          "type": "uint256"
        }
      ],
      "name": "PollCreated",
      "type": "event"
    },
    {
      "anonymous": false,
      "inputs": [
        {
          "indexed": true,
          "internalType": "uint256",
          "name": "pollKey",
          "type": "uint256"
        },
        {
          "indexed": true,
          "internalType": "address",
          "name": "initiator",
          "type": "address"
        }
      ],
      "name": "PollDeleted",
      "type": "event"
    },
    {
      "anonymous": false,
      "inputs": [
        {
          "indexed": true,
          "internalType": "uint256",
          "name": "pollKey",
          "type": "uint256"
        },
        {
          "indexed": true,
          "internalType": "address",
          "name": "participant",
          "type": "address"
        }
      ],
      "name": "Voted",
      "type": "event"
    },
    {
      "inputs": [
        {
          "internalType": "string",
          "name": "subject",
          "type": "string"
        },
        {
          "internalType": "string",
          "name": "details",
          "type": "string"
        },
        {
          "internalType": "string[]",
          "name": "choices",
          "type": "string[]"
        },
        {
          "internalType": "uint256",
          "name": "expiresAt",
          "type": "uint256"
        }
      ],
      "name": "createPoll",
      "outputs": [
        {
          "internalType": "uint256",
          "name": "newPollId",
          "type": "uint256"
        }
      ],
      "stateMutability": "nonpayable",
      "type": "function"
    },
    {
      "inputs": [
        {
          "internalType": "uint256",
          "name": "pollKey",
          "type": "uint256"
        }
      ],
      "name": "deletePoll",
      "outputs": [],
      "stateMutability": "nonpayable",
      "type": "function"
    },
    {
      "inputs": [
        {
          "internalType": "uint256",
          "name": "",
          "type": "uint256"
        },
        {
          "internalType": "address",
          "name": "",
          "type": "address"
        }
      ],
      "name": "didVote",
      "outputs": [
        {
          "internalType": "bool",
          "name": "",
          "type": "bool"
        }
      ],
      "stateMutability": "view",
      "type": "function"
    },
    {
      "inputs": [
        {
          "internalType": "uint256",
          "name": "pollKey",
          "type": "uint256"
        }
      ],
      "name": "getOptionCount",
      "outputs": [
        {
          "internalType": "uint256",
          "name": "",
          "type": "uint256"
        }
      ],
      "stateMutability": "view",
      "type": "function"
    },
    {
      "inputs": [
        {
          "internalType": "uint256",
          "name": "pollKey",
          "type": "uint256"
        },
        {
          "internalType": "uint256",
          "name": "choiceIndex",
          "type": "uint256"
        }
      ],
      "name": "getOptionEncryptedCount",
      "outputs": [
        {
          "internalType": "euint32",
          "name": "",
          "type": "bytes32"
        }
      ],
      "stateMutability": "view",
      "type": "function"
    },
    {
      "inputs": [
        {
          "internalType": "uint256",
          "name": "pollKey",
          "type": "uint256"
        }
      ],
      "name": "getPoll",
      "outputs": [
        {
          "internalType": "address",
          "name": "initiator",
          "type": "address"
        },
        {
          "internalType": "string",
          "name": "subject",
          "type": "string"
        },
        {
          "internalType": "string",
          "name": "details",
          "type": "string"
        },
        {
          "internalType": "string[]",
          "name": "choices",
          "type": "string[]"
        },
        {
          "internalType": "uint256",
          "name": "expiresAt",
          "type": "uint256"
        }
      ],
      "stateMutability": "view",
      "type": "function"
    },
    {
      "inputs": [
        {
          "internalType": "uint256",
          "name": "pollKey",
          "type": "uint256"
        }
      ],
      "name": "grantDecryptForAllOptions",
      "outputs": [],
      "stateMutability": "nonpayable",
      "type": "function"
    },
    {
      "inputs": [
        {
          "internalType": "uint256",
          "name": "",
          "type": "uint256"
        }
      ],
      "name": "pollRecords",
      "outputs": [
        {
          "internalType": "address",
          "name": "initiator",
          "type": "address"
        },
        {
          "internalType": "string",
          "name": "subject",
          "type": "string"
        },
        {
          "internalType": "string",
          "name": "details",
          "type": "string"
        },
        {
          "internalType": "uint256",
          "name": "expiresAt",
          "type": "uint256"
        },
        {
          "internalType": "bool",
          "name": "initialized",
          "type": "bool"
        }
      ],
      "stateMutability": "view",
      "type": "function"
    },
    {
      "inputs": [],
      "name": "protocolId",
      "outputs": [
        {
          "internalType": "uint256",
          "name": "",
          "type": "uint256"
        }
      ],
      "stateMutability": "pure",
      "type": "function"
    },
    {
      "inputs": [],
      "name": "totalPolls",
      "outputs": [
        {
          "internalType": "uint256",
          "name": "",
          "type": "uint256"
        }
      ],
      "stateMutability": "view",
      "type": "function"
    },
    {
      "inputs": [
        {
          "internalType": "uint256",
          "name": "pollKey",
          "type": "uint256"
        },
        {
          "internalType": "externalEuint32[]",
          "name": "encryptedBits",
          "type": "bytes32[]"
        },
        {
          "internalType": "bytes",
          "name": "inputProof",
          "type": "bytes"
        }
      ],
      "name": "vote",
      "outputs": [],
      "stateMutability": "nonpayable",
      "type": "function"
    }
  ],
  "transactionHash": "0x1fc188e575c7d0fc667f2c464e59ccda77d475fa10ab1a3b3e94c416976f8af6",
  "args": [],
  "numDeployments": 3,
  "solcInputHash": "62e02587e636718c6cca41ba2e036ea0",
  "bytecode": "0x608060405234801561000f575f5ffd5b5061018a6100ae604080516080810182525f808252602082018190529181018290526060810191909152506040805160808101825273687820221192c5b662b25367f70076a37bc79b6c815273848b0066793bcc60346da1f49049357399b8d595602082015273a02cda4ca3a71d7c46997716f4283aa851c2881291810191909152731364cbbf2cdf5032c47d8226a6f6fbd2afcdacac606082015290565b80517f9e7b61f58c47dc699ac88507c4f5bb9f121c03808c5676a8078fe583e464970080546001600160a01b03199081166001600160a01b039384161790915560208301517f9e7b61f58c47dc699ac88507c4f5bb9f121c03808c5676a8078fe583e46497018054831691841691909117905560408301517f9e7b61f58c47dc699ac88507c4f5bb9f121c03808c5676a8078fe583e46497028054831691841691909117905560608301517f9e7b61f58c47dc699ac88507c4f5bb9f121c03808c5676a8078fe583e46497038054909216921691909117905550565b611763806101975f395ff3fe608060405234801561000f575f5ffd5b50600436106100c4575f3560e01c8063a7c438bc1161007d578063da1f12ab11610058578063da1f12ab146101ba578063e1adaf58146101c2578063f9747bb1146101d5575f5ffd5b8063a7c438bc14610157578063ad0f04a914610194578063ce7c21ef146101a7575f5ffd5b80631f35b51d116100ad5780631f35b51d1461011957806342fef3f61461012e578063a2eeeb2f14610141575f5ffd5b8063132aa1f3146100c85780631a8cbcaa146100f5575b5f5ffd5b6100db6100d63660046111cc565b6101e8565b6040516100ec959493929190611211565b60405180910390f35b6101086101033660046111cc565b610331565b6040516100ec95949392919061125e565b61012c6101273660046111cc565b6105bc565b005b61012c61013c366004611387565b610708565b6101495f5481565b6040519081526020016100ec565b610184610165366004611400565b600360209081525f928352604080842090915290825290205460ff1681565b60405190151581526020016100ec565b6101496101a2366004611439565b61098d565b6101496101b53660046114e0565b610b56565b612711610149565b6101496101d03660046111cc565b610c23565b61012c6101e33660046111cc565b610c89565b600160208190525f9182526040909120805491810180546001600160a01b039093169261021490611500565b80601f016020809104026020016040519081016040528092919081815260200182805461024090611500565b801561028b5780601f106102625761010080835404028352916020019161028b565b820191905f5260205f20905b81548152906001019060200180831161026e57829003601f168201915b5050505050908060020180546102a090611500565b80601f01602080910402602001604051908101604052809291908181526020018280546102cc90611500565b80156103175780601f106102ee57610100808354040283529160200191610317565b820191905f5260205f20905b8154815290600101906020018083116102fa57829003601f168201915b50505050600483015460059093015491929160ff16905085565b5f8181526001602052604081206005015460609081908190849060ff166103905760405162461bcd60e51b815260206004820152600e60248201526d1413d31317d393d517d193d5539160921b60448201526064015b60405180910390fd5b5f86815260016020819052604090912080546004820154928201805492936001600160a01b03909216929091600285019160038601919084906103d290611500565b80601f01602080910402602001604051908101604052809291908181526020018280546103fe90611500565b80156104495780601f1061042057610100808354040283529160200191610449565b820191905f5260205f20905b81548152906001019060200180831161042c57829003601f168201915b5050505050935082805461045c90611500565b80601f016020809104026020016040519081016040528092919081815260200182805461048890611500565b80156104d35780601f106104aa576101008083540402835291602001916104d3565b820191905f5260205f20905b8154815290600101906020018083116104b657829003601f168201915b5050505050925081805480602002602001604051908101604052809291908181526020015f905b828210156105a2578382905f5260205f2001805461051790611500565b80601f016020809104026020016040519081016040528092919081815260200182805461054390611500565b801561058e5780601f106105655761010080835404028352916020019161058e565b820191905f5260205f20905b81548152906001019060200180831161057157829003601f168201915b5050505050815260200190600101906104fa565b505050509150955095509550955095505091939590929450565b5f8181526001602052604090206005015460ff1661060d5760405162461bcd60e51b815260206004820152600e60248201526d1413d31317d393d517d193d5539160921b6044820152606401610387565b5f818152600160205260409020546001600160a01b031633146106725760405162461bcd60e51b815260206004820152600960248201527f4e4f545f4f574e455200000000000000000000000000000000000000000000006044820152606401610387565b5f8181526001602081905260408220805473ffffffffffffffffffffffffffffffffffffffff1916815591906106aa90830182611147565b6106b7600283015f611147565b6106c4600383015f611181565b505f600482018190556005909101805460ff19169055604051339183917f05b0e65544d0436a1daaedf13ce02b014ed3a784e1cc64858063a94d228c989d9190a350565b5f8581526001602052604090206005015460ff166107595760405162461bcd60e51b815260206004820152600e60248201526d1413d31317d393d517d193d5539160921b6044820152606401610387565b5f8581526001602052604090206004015442106107b85760405162461bcd60e51b815260206004820152600a60248201527f504f4c4c5f454e444544000000000000000000000000000000000000000000006044820152606401610387565b5f85815260036020908152604080832033845290915290205460ff16156108215760405162461bcd60e51b815260206004820152600d60248201527f414c52454144595f564f544544000000000000000000000000000000000000006044820152606401610387565b5f858152600160205260409020600301548381146108815760405162461bcd60e51b815260206004820152600a60248201527f4241445f4c454e475448000000000000000000000000000000000000000000006044820152606401610387565b5f5b81811015610937575f6108e38787848181106108a1576108a1611538565b9050602002013586868080601f0160208091040260200160405190810160405280939291908181526020018383808284375f92019190915250610d8692505050565b5f8981526002602090815260408083208684529091529020549091506109099082610d9a565b5f898152600260209081526040808320868452909152902081905561092d90610dc8565b5050600101610883565b505f868152600360209081526040808320338085529252808320805460ff1916600117905551909188917f030b0f8dcd86a031eddb071f91882edeac8173663ba775713b677b42b51be44b9190a3505050505050565b5f600283108015906109a0575060108311155b6109ec5760405162461bcd60e51b815260206004820152600f60248201527f494e56414c49445f4f5054494f4e5300000000000000000000000000000000006044820152606401610387565b428211610a3b5760405162461bcd60e51b815260206004820152601060248201527f494e56414c49445f444541444c494e45000000000000000000000000000000006044820152606401610387565b5f5f8154610a489061154c565b91829055505f818152600160208190526040909120805473ffffffffffffffffffffffffffffffffffffffff1916331781559192508101610a8a898b836115cf565b5060028101610a9a8789836115cf565b505f5b84811015610af55781600301868683818110610abb57610abb611538565b9050602002810190610acd9190611689565b82546001810184555f938452602090932090920191610aec91836115cf565b50600101610a9d565b506004810183905560058101805460ff19166001179055604051339083907f8b409c888b478e34b702eb6f0a6f26702afb5e0fae4315f1307d7e005648dc6590610b429087815260200190565b60405180910390a350979650505050505050565b5f8281526001602052604081206005015460ff16610ba75760405162461bcd60e51b815260206004820152600e60248201526d1413d31317d393d517d193d5539160921b6044820152606401610387565b5f838152600160205260409020600301548210610c065760405162461bcd60e51b815260206004820152600a60248201527f4241445f4f5054494f4e000000000000000000000000000000000000000000006044820152606401610387565b505f91825260026020908152604080842092845291905290205490565b5f8181526001602052604081206005015460ff16610c745760405162461bcd60e51b815260206004820152600e60248201526d1413d31317d393d517d193d5539160921b6044820152606401610387565b505f9081526001602052604090206003015490565b5f8181526001602052604090206005015460ff16610cda5760405162461bcd60e51b815260206004820152600e60248201526d1413d31317d393d517d193d5539160921b6044820152606401610387565b5f81815260016020526040902060040154421015610d3a5760405162461bcd60e51b815260206004820152600960248201527f4e4f545f454e44454400000000000000000000000000000000000000000000006044820152606401610387565b5f81815260016020526040812060030154905b81811015610d81575f838152600260209081526040808320848452909152902054610d789033610dd7565b50600101610d4d565b505050565b5f610d9383836004610de9565b9392505050565b5f82610dac57610da95f610f09565b92505b81610dbd57610dba5f610f09565b91505b610d9383835f610f21565b5f610dd38230611001565b5090565b5f610de28383611001565b5090919050565b7f9e7b61f58c47dc699ac88507c4f5bb9f121c03808c5676a8078fe583e46497015460405163196d0b9b60e01b81525f917f9e7b61f58c47dc699ac88507c4f5bb9f121c03808c5676a8078fe583e4649700916001600160a01b039091169063196d0b9b90610e629088903390899089906004016116ec565b6020604051808303815f875af1158015610e7e573d5f5f3e3d5ffd5b505050506040513d601f19601f82011682018060405250810190610ea2919061172b565b8154604051630f8e573b60e21b8152600481018390523360248201529193506001600160a01b031690633e395cec906044015f604051808303815f87803b158015610eeb575f5ffd5b505af1158015610efd573d5f5f3e3d5ffd5b50505050509392505050565b5f610f1b8263ffffffff16600461108a565b92915050565b5f5f8215610f345750600160f81b610f37565b505f5b5f7f9e7b61f58c47dc699ac88507c4f5bb9f121c03808c5676a8078fe583e4649700600181015460405163022f65e760e31b815260048101899052602481018890527fff00000000000000000000000000000000000000000000000000000000000000851660448201529192506001600160a01b03169063117b2f38906064016020604051808303815f875af1158015610fd3573d5f5f3e3d5ffd5b505050506040513d601f19601f82011682018060405250810190610ff7919061172b565b9695505050505050565b5f7f9e7b61f58c47dc699ac88507c4f5bb9f121c03808c5676a8078fe583e46497008054604051635ca4b5b160e11b8152600481018690526001600160a01b03858116602483015292935091169063b9496b62906044015f604051808303815f87803b15801561106f575f5ffd5b505af1158015611081573d5f5f3e3d5ffd5b50505050505050565b7f9e7b61f58c47dc699ac88507c4f5bb9f121c03808c5676a8078fe583e464970154604051639cd07acb60e01b81525f917f9e7b61f58c47dc699ac88507c4f5bb9f121c03808c5676a8078fe583e4649700916001600160a01b0390911690639cd07acb906110ff9087908790600401611742565b6020604051808303815f875af115801561111b573d5f5f3e3d5ffd5b505050506040513d601f19601f8201168201806040525081019061113f919061172b565b949350505050565b50805461115390611500565b5f825580601f10611162575050565b601f0160209004905f5260205f209081019061117e919061119c565b50565b5080545f8255905f5260205f209081019061117e91906111b0565b5b80821115610dd3575f815560010161119d565b80821115610dd3575f6111c38282611147565b506001016111b0565b5f602082840312156111dc575f5ffd5b5035919050565b5f81518084528060208401602086015e5f602082860101526020601f19601f83011685010191505092915050565b6001600160a01b038616815260a060208201525f61123260a08301876111e3565b828103604084015261124481876111e3565b606084019590955250509015156080909101529392505050565b6001600160a01b038616815260a060208201525f61127f60a08301876111e3565b828103604084015261129181876111e3565b9050828103606084015280855180835260208301915060208160051b840101602088015f5b838110156112e857601f198684030185526112d28383516111e3565b60209586019590935091909101906001016112b6565b5050809450505050508260808301529695505050505050565b5f5f83601f840112611311575f5ffd5b50813567ffffffffffffffff811115611328575f5ffd5b6020830191508360208260051b8501011115611342575f5ffd5b9250929050565b5f5f83601f840112611359575f5ffd5b50813567ffffffffffffffff811115611370575f5ffd5b602083019150836020828501011115611342575f5ffd5b5f5f5f5f5f6060868803121561139b575f5ffd5b85359450602086013567ffffffffffffffff8111156113b8575f5ffd5b6113c488828901611301565b909550935050604086013567ffffffffffffffff8111156113e3575f5ffd5b6113ef88828901611349565b969995985093965092949392505050565b5f5f60408385031215611411575f5ffd5b8235915060208301356001600160a01b038116811461142e575f5ffd5b809150509250929050565b5f5f5f5f5f5f5f6080888a03121561144f575f5ffd5b873567ffffffffffffffff811115611465575f5ffd5b6114718a828b01611349565b909850965050602088013567ffffffffffffffff811115611490575f5ffd5b61149c8a828b01611349565b909650945050604088013567ffffffffffffffff8111156114bb575f5ffd5b6114c78a828b01611301565b989b979a50959894979596606090950135949350505050565b5f5f604083850312156114f1575f5ffd5b50508035926020909101359150565b600181811c9082168061151457607f821691505b60208210810361153257634e487b7160e01b5f52602260045260245ffd5b50919050565b634e487b7160e01b5f52603260045260245ffd5b5f6001820161156957634e487b7160e01b5f52601160045260245ffd5b5060010190565b634e487b7160e01b5f52604160045260245ffd5b601f821115610d8157805f5260205f20601f840160051c810160208510156115a95750805b601f840160051c820191505b818110156115c8575f81556001016115b5565b5050505050565b67ffffffffffffffff8311156115e7576115e7611570565b6115fb836115f58354611500565b83611584565b5f601f84116001811461162c575f85156116155750838201355b5f19600387901b1c1916600186901b1783556115c8565b5f83815260208120601f198716915b8281101561165b578685013582556020948501946001909201910161163b565b5086821015611677575f1960f88860031b161c19848701351681555b505060018560011b0183555050505050565b5f5f8335601e1984360301811261169e575f5ffd5b83018035915067ffffffffffffffff8211156116b8575f5ffd5b602001915036819003821315611342575f5ffd5b605481106116e857634e487b7160e01b5f52602160045260245ffd5b9052565b8481526001600160a01b0384166020820152608060408201525f61171360808301856111e3565b905061172260608301846116cc565b95945050505050565b5f6020828403121561173b575f5ffd5b5051919050565b82815260408101610d9360208301846116cc56fea164736f6c634300081b000a",
  "devdoc": {
    "kind": "dev",
    "methods": {
      "deletePoll(uint256)": {
        "details": "/"
      },
      "grantDecryptForAllOptions(uint256)": {
        "details": " userDecryptEIP-712 "
      },
      "vote(uint256,bytes32[],bytes)": {
        "details": "encBits.length  options.length "
      }
    },
    "title": "FHEVoteApp -  FHEVM ",
    "version": 1
  },
  "userdoc": {
    "kind": "user",
    "methods": {
      "createPoll(string,string,string[],uint256)": {
        "notice": ""
      },
      "deletePoll(uint256)": {
        "notice": ""
      },
      "getOptionCount(uint256)": {
        "notice": ""
      },
      "getOptionEncryptedCount(uint256,uint256)": {
        "notice": ""
      },
      "getPoll(uint256)": {
        "notice": ""
      },
      "grantDecryptForAllOptions(uint256)": {
        "notice": ""
      },
      "vote(uint256,bytes32[],bytes)": {
        "notice": "10"
      }
    },
    "notice": "/ userDecrypt",
    "version": 1
  },
  "storageLayout": {
    "storage": [
      {
        "astId": 39072,
        "contract": "contracts/FHEVoteApp.sol:FHEVoteApp",
        "label": "totalPolls",
        "offset": 0,
        "slot": "0",
        "type": "t_uint256"
      },
      {
        "astId": 39077,
        "contract": "contracts/FHEVoteApp.sol:FHEVoteApp",
        "label": "pollRecords",
        "offset": 0,
        "slot": "1",
        "type": "t_mapping(t_uint256,t_struct(Poll)39050_storage)"
      },
      {
        "astId": 39084,
        "contract": "contracts/FHEVoteApp.sol:FHEVoteApp",
        "label": "_encryptedCounts",
        "offset": 0,
        "slot": "2",
        "type": "t_mapping(t_uint256,t_mapping(t_uint256,t_userDefinedValueType(euint32)39536))"
      },
      {
        "astId": 39090,
        "contract": "contracts/FHEVoteApp.sol:FHEVoteApp",
        "label": "didVote",
        "offset": 0,
        "slot": "3",
        "type": "t_mapping(t_uint256,t_mapping(t_address,t_bool))"
      }
    ],
    "types": {
      "t_address": {
        "encoding": "inplace",
        "label": "address",
        "numberOfBytes": "20"
      },
      "t_array(t_string_storage)dyn_storage": {
        "base": "t_string_storage",
        "encoding": "dynamic_array",
        "label": "string[]",
        "numberOfBytes": "32"
      },
      "t_bool": {
        "encoding": "inplace",
        "label": "bool",
        "numberOfBytes": "1"
      },
      "t_mapping(t_address,t_bool)": {
        "encoding": "mapping",
        "key": "t_address",
        "label": "mapping(address => bool)",
        "numberOfBytes": "32",
        "value": "t_bool"
      },
      "t_mapping(t_uint256,t_mapping(t_address,t_bool))": {
        "encoding": "mapping",
        "key": "t_uint256",
        "label": "mapping(uint256 => mapping(address => bool))",
        "numberOfBytes": "32",
        "value": "t_mapping(t_address,t_bool)"
      },
      "t_mapping(t_uint256,t_mapping(t_uint256,t_userDefinedValueType(euint32)39536))": {
        "encoding": "mapping",
        "key": "t_uint256",
        "label": "mapping(uint256 => mapping(uint256 => euint32))",
        "numberOfBytes": "32",
        "value": "t_mapping(t_uint256,t_userDefinedValueType(euint32)39536)"
      },
      "t_mapping(t_uint256,t_struct(Poll)39050_storage)": {
        "encoding": "mapping",
        "key": "t_uint256",
        "label": "mapping(uint256 => struct FHEVoteApp.Poll)",
        "numberOfBytes": "32",
        "value": "t_struct(Poll)39050_storage"
      },
      "t_mapping(t_uint256,t_userDefinedValueType(euint32)39536)": {
        "encoding": "mapping",
        "key": "t_uint256",
        "label": "mapping(uint256 => euint32)",
        "numberOfBytes": "32",
        "value": "t_userDefinedValueType(euint32)39536"
      },
      "t_string_storage": {
        "encoding": "bytes",
        "label": "string",
        "numberOfBytes": "32"
      },
      "t_struct(Poll)39050_storage": {
        "encoding": "inplace",
        "label": "struct FHEVoteApp.Poll",
        "members": [
          {
            "astId": 39038,
            "contract": "contracts/FHEVoteApp.sol:FHEVoteApp",
            "label": "initiator",
            "offset": 0,
            "slot": "0",
            "type": "t_address"
          },
          {
            "astId": 39040,
            "contract": "contracts/FHEVoteApp.sol:FHEVoteApp",
            "label": "subject",
            "offset": 0,
            "slot": "1",
            "type": "t_string_storage"
          },
          {
            "astId": 39042,
            "contract": "contracts/FHEVoteApp.sol:FHEVoteApp",
            "label": "details",
            "offset": 0,
            "slot": "2",
            "type": "t_string_storage"
          },
          {
            "astId": 39045,
            "contract": "contracts/FHEVoteApp.sol:FHEVoteApp",
            "label": "choices",
            "offset": 0,
            "slot": "3",
            "type": "t_array(t_string_storage)dyn_storage"
          },
          {
            "astId": 39047,
            "contract": "contracts/FHEVoteApp.sol:FHEVoteApp",
            "label": "expiresAt",
            "offset": 0,
            "slot": "4",
            "type": "t_uint256"
          },
          {
            "astId": 39049,
            "contract": "contracts/FHEVoteApp.sol:FHEVoteApp",
            "label": "initialized",
            "offset": 0,
            "slot": "5",
            "type": "t_bool"
          }
        ],
        "numberOfBytes": "192"
      },
      "t_uint256": {
        "encoding": "inplace",
        "label": "uint256",
        "numberOfBytes": "32"
      },
      "t_userDefinedValueType(euint32)39536": {
        "encoding": "inplace",
        "label": "euint32",
        "numberOfBytes": "32"
      }
    }
  }
}